:04000000B1EF3FF02D
:107F62000001C0EF3FF0B9EC3FF0DDEC3FF0120052
:107F7200300ED36E040ED26E000E9B6E1200B4EC65
:107F82003FF08AB002D08A8001D08A90000E036E40
:107F9200000E026E03BE06D00350F3E1140E025C23
:107FA200D8B0EFD7820E016EDE0EE82EFED7012E7C
:107FB200FCD7024A032AEED7000E896E92682F0E72
:107FC2000F01386F000E8A6EFE0E936E3E0E0F0189
:107FD200396F000E616E000E8B6E9468FC0E0F01FD
:107FE2003A6F000E8C6E95680F013B69000E8D6E24
:0E7FF200070E966E070E0F013C6FF18E120007
:020000040020DA
:08000000FFFFFFFFFFFFFFFF00
:020000040030CA
:0E000000FF031F3CFFBF81FF0FC00FE00F404A
:00000001FF
