:02000000FE2FD1
:100E380083160313051606148312031305120610EE
:100E48000800F6011C273127A030B8277E27F500B7
:100E58007508F60045275D27302F83120313051206
:100E6800061083160313061405165330F000F00B12
:100E78003B2F8316031305125330F000F00B422F5B
:100E880008008316031306102930F000F00B4A2FD0
:100E980000008316031305122930F000F00B522FBF
:100EA80000008316031306145330F000F00B5A2F7A
:100EB80008008316031306102930F000F00B622F88
:100EC80000008316031305122930F000F00B6A2F77
:100ED80000008316031306142930F000F00B722F5C
:100EE80000008316031305162930F000F00B7A2F43
:100EF80000000800F201F301083073020318B62F4E
:100F080083160313061005165330F000F00B8A2FD2
:100F18008316031306142930F000F00B912F0000FC
:100F2800003083120313051A0130F0007303FF3AEF
:100F3800073E013EA12F0310F00DFF3E031D9F2F1A
:100F480070087204F1007108F2002930F000F00B0B
:100F5800AB2F00000130F0007008F307083073026F
:100F6800031C842F72080800F300F401083074028F
:100F78000318EE2F8316031306102930F000F00B28
:100F8800C32F0000740AF0007308F100F201CF2F9C
:100F98000310F10DF20DF00BCC2FF11FD72F831694
:100FA80003130516DA2F8316031305122930F000F0
:100FB800F00BDC2F00008316031306145330F000E7
:100FC800F00BE42F0130F0007008F40708307402C9
:100FD800031CBE2F83160313061005165330F000AA
:100FE800F00BF42F8316031306145330F000F00BA4
:080FF800FB2F08008301252FE7
:02400E0042FF6F
:00000001FF
